{
  "_format": "hh-sol-artifact-1",
  "contractName": "ItemManager",
  "sourceName": "contracts/ItemManager.sol",
  "abi": [
    {
      "inputs": [],
      "stateMutability": "nonpayable",
      "type": "constructor"
    },
    {
      "anonymous": false,
      "inputs": [
        {
          "indexed": true,
          "internalType": "uint256",
          "name": "_index",
          "type": "uint256"
        },
        {
          "indexed": true,
          "internalType": "uint256",
          "name": "_step",
          "type": "uint256"
        },
        {
          "indexed": true,
          "internalType": "address",
          "name": "_itemAddress",
          "type": "address"
        }
      ],
      "name": "SupplyChainstateTriggers",
      "type": "event"
    },
    {
      "inputs": [
        {
          "internalType": "string",
          "name": "_identifier",
          "type": "string"
        },
        {
          "internalType": "uint256",
          "name": "_price",
          "type": "uint256"
        }
      ],
      "name": "CraetItem",
      "outputs": [],
      "stateMutability": "nonpayable",
      "type": "function"
    },
    {
      "inputs": [],
      "name": "ItemIndex",
      "outputs": [
        {
          "internalType": "uint256",
          "name": "",
          "type": "uint256"
        }
      ],
      "stateMutability": "view",
      "type": "function"
    },
    {
      "inputs": [],
      "name": "Owner",
      "outputs": [
        {
          "internalType": "address",
          "name": "",
          "type": "address"
        }
      ],
      "stateMutability": "view",
      "type": "function"
    },
    {
      "inputs": [],
      "name": "SendMoney_to_Owner",
      "outputs": [],
      "stateMutability": "payable",
      "type": "function"
    },
    {
      "inputs": [
        {
          "internalType": "uint256",
          "name": "_index",
          "type": "uint256"
        }
      ],
      "name": "TriggerDelivery",
      "outputs": [],
      "stateMutability": "nonpayable",
      "type": "function"
    },
    {
      "inputs": [
        {
          "internalType": "uint256",
          "name": "_index",
          "type": "uint256"
        }
      ],
      "name": "TriggerPayement",
      "outputs": [],
      "stateMutability": "payable",
      "type": "function"
    },
    {
      "inputs": [
        {
          "internalType": "uint256",
          "name": "",
          "type": "uint256"
        }
      ],
      "name": "items",
      "outputs": [
        {
          "internalType": "contract item",
          "name": "_item",
          "type": "address"
        },
        {
          "internalType": "uint256",
          "name": "_itemPrice",
          "type": "uint256"
        },
        {
          "internalType": "string",
          "name": "_identifier",
          "type": "string"
        },
        {
          "internalType": "enum ItemManager.SupplyChainstate",
          "name": "_state",
          "type": "uint8"
        }
      ],
      "stateMutability": "view",
      "type": "function"
    }
  ],
  "bytecode": "0x608060405234801561001057600080fd5b5033600160006101000a81548173ffffffffffffffffffffffffffffffffffffffff021916908373ffffffffffffffffffffffffffffffffffffffff160217905550611b7a806100616000396000f3fe6080604052600436106200007a5760003560e01c8063b4a99a4e1162000055578063b4a99a4e14620000e9578063bfb231d21462000119578063e4648e8d1462000160578063f252930b1462000180576200007a565b8063121e3d89146200007f5780632a5317ab14620000af5780637e03e46b14620000dd575b600080fd5b3480156200008c57600080fd5b5062000097620001ae565b604051620000a6919062000ffd565b60405180910390f35b348015620000bc57600080fd5b50620000db6004803603810190620000d5919062000ce2565b620001b4565b005b620000e762000463565b005b348015620000f657600080fd5b50620001016200053b565b60405162000110919062000ea5565b60405180910390f35b3480156200012657600080fd5b506200014560048036038101906200013f919062000ce2565b62000561565b60405162000157949392919062000eff565b60405180910390f35b6200017e600480360381019062000178919062000ce2565b6200064e565b005b3480156200018d57600080fd5b50620001ac6004803603810190620001a6919062000c88565b62000958565b005b60005481565b80600160009054906101000a900473ffffffffffffffffffffffffffffffffffffffff1673ffffffffffffffffffffffffffffffffffffffff163373ffffffffffffffffffffffffffffffffffffffff16148062000228575060006002600083815260200190815260200160002060010154115b6200026a576040517f08c379a0000000000000000000000000000000000000000000000000000000008152600401620002619062000f53565b60405180910390fd5b60026003811115620002a5577f4e487b7100000000000000000000000000000000000000000000000000000000600052602160045260246000fd5b6002600084815260200190815260200160002060030160009054906101000a900460ff16600381111562000302577f4e487b7100000000000000000000000000000000000000000000000000000000600052602160045260246000fd5b1462000345576040517f08c379a00000000000000000000000000000000000000000000000000000000081526004016200033c9062000fdb565b60405180910390fd5b60036002600084815260200190815260200160002060030160006101000a81548160ff02191690836003811115620003a6577f4e487b7100000000000000000000000000000000000000000000000000000000600052602160045260246000fd5b02179055506002600083815260200190815260200160002060000160009054906101000a900473ffffffffffffffffffffffffffffffffffffffff1673ffffffffffffffffffffffffffffffffffffffff1660038081111562000432577f4e487b7100000000000000000000000000000000000000000000000000000000600052602160045260246000fd5b837f78d6e329436001c4deebc7d206ecfc58765a6fe14338f08c8cce259c57e603c460405160405180910390a45050565b6000600160009054906101000a900473ffffffffffffffffffffffffffffffffffffffff1673ffffffffffffffffffffffffffffffffffffffff1647604051620004ad9062000e8e565b60006040518083038185875af1925050503d8060008114620004ec576040519150601f19603f3d011682016040523d82523d6000602084013e620004f1565b606091505b505090508062000538576040517f08c379a00000000000000000000000000000000000000000000000000000000081526004016200052f9062000fb9565b60405180910390fd5b50565b600160009054906101000a900473ffffffffffffffffffffffffffffffffffffffff1681565b60026020528060005260406000206000915090508060000160009054906101000a900473ffffffffffffffffffffffffffffffffffffffff1690806001015490806002018054620005b2906200119c565b80601f0160208091040260200160405190810160405280929190818152602001828054620005e0906200119c565b8015620006315780601f10620006055761010080835404028352916020019162000631565b820191906000526020600020905b8154815290600101906020018083116200061357829003601f168201915b5050505050908060030160009054906101000a900460ff16905084565b80600160009054906101000a900473ffffffffffffffffffffffffffffffffffffffff1673ffffffffffffffffffffffffffffffffffffffff163373ffffffffffffffffffffffffffffffffffffffff161480620006c2575060006002600083815260200190815260200160002060010154115b62000704576040517f08c379a0000000000000000000000000000000000000000000000000000000008152600401620006fb9062000f53565b60405180910390fd5b600160038111156200073f577f4e487b7100000000000000000000000000000000000000000000000000000000600052602160045260246000fd5b6002600084815260200190815260200160002060030160009054906101000a900460ff1660038111156200079c577f4e487b7100000000000000000000000000000000000000000000000000000000600052602160045260246000fd5b14620007df576040517f08c379a0000000000000000000000000000000000000000000000000000000008152600401620007d69062000f75565b60405180910390fd5b346002600084815260200190815260200160002060010154146200083a576040517f08c379a0000000000000000000000000000000000000000000000000000000008152600401620008319062000f97565b60405180910390fd5b600280600084815260200190815260200160002060030160006101000a81548160ff021916908360038111156200089a577f4e487b7100000000000000000000000000000000000000000000000000000000600052602160045260246000fd5b02179055506002600083815260200190815260200160002060000160009054906101000a900473ffffffffffffffffffffffffffffffffffffffff1673ffffffffffffffffffffffffffffffffffffffff166002600381111562000927577f4e487b7100000000000000000000000000000000000000000000000000000000600052602160045260246000fd5b837f78d6e329436001c4deebc7d206ecfc58765a6fe14338f08c8cce259c57e603c460405160405180910390a45050565b600030826000546040516200096d9062000b41565b6200097b9392919062000ec2565b604051809103906000f08015801562000998573d6000803e3d6000fd5b50905080600260008054815260200190815260200160002060000160006101000a81548173ffffffffffffffffffffffffffffffffffffffff021916908373ffffffffffffffffffffffffffffffffffffffff160217905550826002600080548152602001908152602001600020600201908051906020019062000a1e92919062000b4f565b50816002600080548152602001908152602001600020600101819055506001600260008054815260200190815260200160002060030160006101000a81548160ff0219169083600381111562000a9d577f4e487b7100000000000000000000000000000000000000000000000000000000600052602160045260246000fd5b02179055508073ffffffffffffffffffffffffffffffffffffffff166001600381111562000af4577f4e487b7100000000000000000000000000000000000000000000000000000000600052602160045260246000fd5b6000547f78d6e329436001c4deebc7d206ecfc58765a6fe14338f08c8cce259c57e603c460405160405180910390a460008081548092919062000b379062001208565b9190505550505050565b6106fa806200144b83390190565b82805462000b5d906200119c565b90600052602060002090601f01602090048101928262000b81576000855562000bcd565b82601f1062000b9c57805160ff191683800117855562000bcd565b8280016001018555821562000bcd579182015b8281111562000bcc57825182559160200191906001019062000baf565b5b50905062000bdc919062000be0565b5090565b5b8082111562000bfb57600081600090555060010162000be1565b5090565b600062000c1662000c108462001043565b6200101a565b90508281526020810184848401111562000c2f57600080fd5b62000c3c84828562001157565b509392505050565b600082601f83011262000c5657600080fd5b813562000c6884826020860162000bff565b91505092915050565b60008135905062000c828162001430565b92915050565b6000806040838503121562000c9c57600080fd5b600083013567ffffffffffffffff81111562000cb757600080fd5b62000cc58582860162000c44565b925050602062000cd88582860162000c71565b9150509250929050565b60006020828403121562000cf557600080fd5b600062000d058482850162000c71565b91505092915050565b62000d1981620010a0565b82525050565b62000d2a81620010f3565b82525050565b62000d3b816200111b565b82525050565b62000d4c8162001143565b82525050565b600062000d5f8262001079565b62000d6b81856200108f565b935062000d7d81856020860162001166565b62000d888162001312565b840191505092915050565b600062000da26016836200108f565b915062000daf8262001323565b602082019050919050565b600062000dc9601e836200108f565b915062000dd6826200134c565b602082019050919050565b600062000df0601d836200108f565b915062000dfd8262001375565b602082019050919050565b600062000e1760008362001084565b915062000e24826200139e565b600082019050919050565b600062000e3e6029836200108f565b915062000e4b82620013a1565b604082019050919050565b600062000e656014836200108f565b915062000e7282620013f0565b602082019050919050565b62000e8881620010e9565b82525050565b600062000e9b8262000e08565b9150819050919050565b600060208201905062000ebc600083018462000d0e565b92915050565b600060608201905062000ed9600083018662000d1f565b62000ee8602083018562000e7d565b62000ef7604083018462000e7d565b949350505050565b600060808201905062000f16600083018762000d30565b62000f25602083018662000e7d565b818103604083015262000f39818562000d52565b905062000f4a606083018462000d41565b95945050505050565b6000602082019050818103600083015262000f6e8162000d93565b9050919050565b6000602082019050818103600083015262000f908162000dba565b9050919050565b6000602082019050818103600083015262000fb28162000de1565b9050919050565b6000602082019050818103600083015262000fd48162000e2f565b9050919050565b6000602082019050818103600083015262000ff68162000e56565b9050919050565b600060208201905062001014600083018462000e7d565b92915050565b60006200102662001039565b9050620010348282620011d2565b919050565b6000604051905090565b600067ffffffffffffffff821115620010615762001060620012e3565b5b6200106c8262001312565b9050602081019050919050565b600081519050919050565b600081905092915050565b600082825260208201905092915050565b6000620010ad82620010c9565b9050919050565b6000819050620010c48262001419565b919050565b600073ffffffffffffffffffffffffffffffffffffffff82169050919050565b6000819050919050565b6000620011008262001107565b9050919050565b60006200111482620010c9565b9050919050565b600062001128826200112f565b9050919050565b60006200113c82620010c9565b9050919050565b60006200115082620010b4565b9050919050565b82818337600083830152505050565b60005b838110156200118657808201518184015260208101905062001169565b8381111562001196576000848401525b50505050565b60006002820490506001821680620011b557607f821691505b60208210811415620011cc57620011cb620012b4565b5b50919050565b620011dd8262001312565b810181811067ffffffffffffffff82111715620011ff57620011fe620012e3565b5b80604052505050565b60006200121582620010e9565b91507fffffffffffffffffffffffffffffffffffffffffffffffffffffffffffffffff8214156200124b576200124a62001256565b5b600182019050919050565b7f4e487b7100000000000000000000000000000000000000000000000000000000600052601160045260246000fd5b7f4e487b7100000000000000000000000000000000000000000000000000000000600052602160045260246000fd5b7f4e487b7100000000000000000000000000000000000000000000000000000000600052602260045260246000fd5b7f4e487b7100000000000000000000000000000000000000000000000000000000600052604160045260246000fd5b6000601f19601f8301169050919050565b7f596f7520617265206e6f7420617574686f726973656400000000000000000000600082015250565b7f4974656d206973206675727468657220696e20537570706c79636861696e0000600082015250565b7f4f6e6c792066756c6c20706179616d656e7420697320616c6c6f776564000000600082015250565b50565b7f736f6d657468696e672077656e742077726f6e672066756e6473206e6f74207460008201527f72616e7366657265640000000000000000000000000000000000000000000000602082015250565b7f4974656d206973206e6f74205061696420796574000000000000000000000000600082015250565b600481106200142d576200142c62001285565b5b50565b6200143b81620010e9565b81146200144757600080fd5b5056fe608060405234801561001057600080fd5b506040516106fa3803806106fa833981810160405281019061003291906100b3565b82600360006101000a81548173ffffffffffffffffffffffffffffffffffffffff021916908373ffffffffffffffffffffffffffffffffffffffff160217905550816000819055508060018190555050505061017e565b60008151905061009881610150565b92915050565b6000815190506100ad81610167565b92915050565b6000806000606084860312156100c857600080fd5b60006100d686828701610089565b93505060206100e78682870161009e565b92505060406100f88682870161009e565b9150509250925092565b600061010d82610126565b9050919050565b600061011f82610102565b9050919050565b600073ffffffffffffffffffffffffffffffffffffffff82169050919050565b6000819050919050565b61015981610114565b811461016457600080fd5b50565b61017081610146565b811461017b57600080fd5b50565b61056d8061018d6000396000f3fe6080604052600436106100385760003560e01c806306a4ba4b1461023e578063121e3d89146102695780631a998fe3146102945761022f565b3661022f57600060025414610082576040517f08c379a000000000000000000000000000000000000000000000000000000000815260040161007990610391565b60405180910390fd5b34600054146100c6576040517f08c379a00000000000000000000000000000000000000000000000000000000081526004016100bd906103b1565b60405180910390fd5b6000600360009054906101000a900473ffffffffffffffffffffffffffffffffffffffff1673ffffffffffffffffffffffffffffffffffffffff163460015460405160240161011591906103f1565b6040516020818303038152906040527f800fb83f000000000000000000000000000000000000000000000000000000007bffffffffffffffffffffffffffffffffffffffffffffffffffffffff19166020820180517bffffffffffffffffffffffffffffffffffffffffffffffffffffffff838183161783525050505060405161019f919061037a565b60006040518083038185875af1925050503d80600081146101dc576040519150601f19603f3d011682016040523d82523d6000602084013e6101e1565b606091505b50509050346002819055508061022c576040517f08c379a0000000000000000000000000000000000000000000000000000000008152600401610223906103d1565b60405180910390fd5b50005b34801561023b57600080fd5b50005b34801561024a57600080fd5b506102536102bf565b60405161026091906103f1565b60405180910390f35b34801561027557600080fd5b5061027e6102c5565b60405161028b91906103f1565b60405180910390f35b3480156102a057600080fd5b506102a96102cb565b6040516102b691906103f1565b60405180910390f35b60005481565b60015481565b60025481565b60006102dc8261040c565b6102e68185610417565b93506102f681856020860161043d565b80840191505092915050565b600061030f602c83610422565b915061031a82610470565b604082019050919050565b6000610332601c83610422565b915061033d826104bf565b602082019050919050565b6000610355602183610422565b9150610360826104e8565b604082019050919050565b61037481610433565b82525050565b600061038682846102d1565b915081905092915050565b600060208201905081810360008301526103aa81610302565b9050919050565b600060208201905081810360008301526103ca81610325565b9050919050565b600060208201905081810360008301526103ea81610348565b9050919050565b6000602082019050610406600083018461036b565b92915050565b600081519050919050565b600081905092915050565b600082825260208201905092915050565b6000819050919050565b60005b8381101561045b578082015181840152602081019050610440565b8381111561046a576000848401525b50505050565b7f616c72656164792070616964206974656d206973206675727468657220696e2060008201527f737570706c7920636861696e0000000000000000000000000000000000000000602082015250565b7f4f6e6c792066756c6c207061796d656e7420697320616c6c6f77656400000000600082015250565b7f5472616e73656374696f6e206973206661696c65642c2063616e63656c6c696e60008201527f670000000000000000000000000000000000000000000000000000000000000060208201525056fea2646970667358221220ad500d01b265df9449971c2118cc14388d9733fdb932b4f3ba7bf82964cd13c764736f6c63430008040033a26469706673582212206c611570524d5abc57b6f4f8d92b5524bece0b99612b272d8f135e3fc0e2d7a564736f6c63430008040033",
  "linkReferences": {},
  "deployedLinkReferences": {}
}